:020000040800F2
:10000000403000203102000855080008510800085F
:1000100053080008A1070008D90C000800000000E0
:10002000000000000000000000000000990100082E
:10003000A307000800000000DD010008C109000856
:100040004B0200084B0200084B0200084B0200085C
:100050004B0200084B0200084B0200084B0200084C
:100060004B0200084B0200084B0200084B0200083C
:100070004B0200084B0200084B0200084B0200082C
:100080004B0200084B0200084B0200084B0200081C
:100090004B0200084B0200084B0200084B0200080C
:1000A0004B0200084B0200084B0200084B020008FC
:1000B0004B0200084B0200084B0200084B020008EC
:1000C0004B0200084B0200084B0200084B020008DC
:1000D0004B0200084B020008910B00084B0200087D
:1000E0004B0200084B0200084B02000800F002F827
:1000F00000F042F80AA090E8000C82448344AAF180
:100100000107DA4501D100F037F8AFF2090EBAE87D
:100110000F0013F0010F18BFFB1A43F0010318473B
:100120005C2200007C220000103A24BF78C878C10D
:10013000FAD8520724BF30C830C144BF04680C60ED
:10014000704700000023002400250026103A28BF35
:1001500078C1FBD8520728BF30C148BF0B60704739
:10016000642900F0BD80732900F08682002070476A
:100170001FB51FBD10B510BD00F0CAFA1146FFF73C
:10018000F7FF00F05DFF00F0E8FA03B4FFF7F2FFBD
:1001900003BC00F0A9FD0000224B19680868B0E814
:1001A000F00F80F30988BFF36F8F4FF0000080F3EA
:1001B00011884EF00D0E70470000000006480068E0
:1001C000006880F3088862B661B6BFF34F8FBFF353
:1001D0006F8F00DF00BF00BF08ED00E0EFF3098084
:1001E000BFF36F8F0F4B1A6820E9F00F106008B54E
:1001F0004FF0BF0080F31188BFF34F8FBFF36F8FB5
:1002000001F0F6FC4FF0000080F31188BDE80840D3
:1002100019680868B0E8F00F80F30988BFF36F8FA2
:10022000704700BF2C000020EFF3058070470000EE
:100230000948804709480047FEE7FEE7FEE7FEE77A
:10024000FEE7FEE7FEE7FEE7FEE7FEE704480549B6
:10025000054A064B70470000ED090008ED00000854
:10026000402A002040300020402C0020402C00205C
:10027000704700000FB4044910B503AA029800F0BB
:10028000FFF910BC5DF814FB0000002070B50C46AF
:100290000546012A05D02878800600D5EA690023A2
:1002A00002E0012305E05B1C934202D2E05C0028DF
:1002B000F9D1A869E618C01AA861286A184428620A
:1002C0002846AFF3008004E0D5E9012114F8010BC2
:1002D0009047B442F8D32846AFF3008070BD0000C9
:1002E0002DE9F0410646002410687529314616A50F
:1002F00010D0AFF30080002802DA404213A507E0D7
:1003000031688A0701D512A502E0490704D511A575
:10031000012401E0AFF3008000210A2206F1240746
:1003200009E0B0FBF2FCB0FBF2F302FB1C00303042
:1003300078541846491C0028F3D123462A463046F3
:10034000BDE8F04100F015B9000000002D000000EC
:100350002B000000200000002DE9F05F89460446D4
:100360004FF0000ADFF874B1FB44C0F820A020462B
:10037000E1688847002874D0252806D0D4E90121F7
:100380009047206A401C2062F1E700265F46204625
:10039000E16888472028054607DB312D05D278190A
:1003A00010F8200C08B10643F1E7B00701D526F09C
:1003B0000406C4F81CA00027C4F818A02A2D09D0F0
:1003C000284600F08AFC38B304EB8708303DC8F8B3
:1003D000185019E059F8041B204604EB870291617C
:1003E000E1688847012F054618D1E069002820DA26
:1003F00026F020061DE0D8F8180000EB800005EB81
:1004000040003038C8F818002046E16888470546A3
:1004100000F063FC0028EED1012F0AD02E2D08D168
:100420002046E16888477F1C0546022F46F02006DB
:10043000C4DBA069002803DA404246F00106A0614F
:10044000F00701D026F010066C2D0BD0682D09D0D6
:100450004C2D39D06A2D35D0742D35D07A2D33D02E
:1004600016E038E0E1682F4620468847B842054646
:1004700009D16C2F26D04FF48060E16806432046F6
:100480008847054604E06C2F1AD04FF4807006436D
:100490000DB3A5F14100192802D8203546F40066B5
:1004A0004A462946204626604E46FFF759FE80B14F
:1004B00001280BD0F61D26F0070000F1080956E7C9
:1004C0004020E4E78020D8E70020D6E706F10409C1
:1004D0004DE7284652E7206ABDE8F09FFE1F000066
:1004E000032A40F2308010F0030C00F0158011F860
:1004F000013BBCF1020F624498BF11F801CB00F838
:10050000013B38BF11F8013BA2F1040298BF00F88B
:1005100001CB38BF00F8013B11F0030300F0C280AB
:10052000083AC0F0088051F8043B083A51F804CB6F
:10053000A0E80810F5E7121D5CBF51F8043B40F835
:10054000043BAFF30080D20724BF11F8013B11F840
:1005500001CB48BF11F8012B24BF00F8013B00F884
:1005600001CB48BF00F8012B7047704770477047B8
:1005700070472DE9F0470D4699469246044600F132
:1005800024080168880604D5E06921F01001216083
:1005900000E00120A84201DD471B00E00027A1691F
:1005A0007A1902EB0900081AA0612078C00602D46B
:1005B0002046AFF30080002608E0D4E901211AF8B4
:1005C00006009047206A401C761C20624E45F4DBF2
:1005D0002078C0060AD52046AFF3008006E0D4E9B3
:1005E000012130209047206A401C2062381EA7F16C
:1005F0000107F4DC07E0D4E9012118F80500904771
:10060000206A401C2062281EA5F10105F3DC20466B
:10061000AFF300802078000602D50220BDE8F08705
:100620000120FBE701694A1C02610878704700B5A8
:100630008FB0CDE901310021059105497944CDE91B
:10064000031011466846FFF787FE0FB000BD00009B
:10065000E5FFFFFF10B5436913B1AFF3008001E080
:10066000FFF714FE012010BD127800F124010A707A
:1006700000224A700122EDE711684FF0FF32E9E7EE
:10068000074B70B50D467B44FFF7D1FF0446284663
:1006900000F03AF810B14FF0FF3070BD204670BD49
:1006A000D707000010B5203AC0F00B80B1E8185011
:1006B000203AA0E81850B1E81850A0E81850BFF44C
:1006C000F5AF5FEA027C24BFB1E81850A0E81850EB
:1006D00044BF18C918C0BDE810405FEA827C24BF3F
:1006E00051F8043B40F8043B08BF7047D20728BFCD
:1006F00031F8023B48BF11F8012B28BF20F8023B1C
:1007000048BF00F8012B7047007B00F08000704765
:10071000754600F02BF8AE4605006946534620F0BA
:100720000700854618B020B5FFF790FDBDE82040D2
:100730004FF000064FF000074FF000084FF0000B9D
:1007400021F00701AC46ACE8C009ACE8C009ACE850
:10075000C009ACE8C0098D46704710B50446AFF338
:1007600000802046BDE81040FFF70FBD00487047ED
:10077000DC2900201CB500F0B9FA002000900346E7
:100780000190402202A1054801F032FC1CBD00008E
:100790006C65645F7461736B00000000CD0F00082E
:1007A000FEE77047F0B5CA78002502F00F03D206C5
:1007B00001D58A7813430A784FF00F0E12F0FF0F1D
:1007C0004FF001021CD004680F8802FA05F637408A
:1007D000B74211D14FEA850C0EFA0CF724EA07074D
:1007E00003FA0CF43C43CF78282F02D0482F02D0D4
:1007F00002E0466100E006616D1C082DE4D3046050
:100800000C88FF2C1ED944685FF0000606F108072B
:1008100002FA07F50F882F40AF420FD14FEA860C3E
:100820000EFA0CF7BC4303FA0CF73C43CF78282FA1
:1008300000D14561CF78482F00D10561761C082E84
:10084000E4D34460F0BD0AB1016170474161704773
:10085000FEE7FEE770470000044A0029D16901D095
:10086000014300E08143D161704700000010024065
:10087000044A0029916901D0014300E0814391615C
:10088000704700000010024030B51F494A6812F05E
:100890000C031E4A03D0042B01D0082B21D0026088
:1008A0004A680F231A4C03EA1212A35C0268DA406A
:1008B00042604B68072505EA1323E35C22FA03F341
:1008C00083604B6805EAD323E35CDA40C260496881
:1008D000032303EA9131231F595CB2FBF1F101615B
:1008E00030BD4A684B6802F470124FF0020413F4F2
:1008F000803F04EB924202D04B689B0301D5054B2D
:1009000000E0024B5A43CAE70010024000127A008E
:100910001C00002000093D000CB500212648019173
:100920000091026842F4803202604FF4A0630268D2
:1009300002F400320092019A521C0192009A12B9FC
:10094000019A9A42F3D10268920333D501210091B2
:100950001A490A6842F010020A600A6822F003028B
:100960000A600A6842F002020A6041684160416818
:100970004160416841F480614160416821F47C112B
:100980004160416841F4E8114160016841F08071C3
:10099000016001688901FCD5416821F003014160D3
:1009A000416841F0020141604168C1F381010229BF
:1009B000FAD10CBD00910CBD001002400020024095
:1009C00010B5BF2080F31188BFF34F8FBFF36F8F37
:1009D00001F04EFB18B104494FF080500860002030
:1009E00080F3118810BD000004ED00E00F4810B541
:1009F000016841F00101016041680D4A1140416008
:100A000001680C4A11400160016821F480210160F5
:100A1000416821F4FE0141604FF41F018160FFF73E
:100A20007BFF05494FF00060086010BD00100240D8
:100A30000000FFF8FFFFF6FE08ED00E00029018846
:100A400002D041F0010101E021F001010180704775
:100A5000002930F8441F02D041F4004101E0C1F305
:100A60000E0101807047000030B5028C22F00102B7
:100A70000284028C8388048B22F0020224F0730526
:100A80000C882C430D8915434A882A43114DA842EE
:100A90000BD0114DA84208D0104DA84205D0104DE2
:100AA000A84202D00F4DA8420DD122F008054A8974
:100AB00023F440732A4322F004058A882A438D894F
:100AC0001D43CB892B4383800483C988818602849C
:100AD00030BD0000002C01400034014000400140C6
:100AE0000044014000480140028B22F008020A4302
:100AF0000283704730B502881B4B1C4C98420DD0C6
:100B0000A0420BD0B0F1804F08D0194DA84205D0BB
:100B1000184DA84202D0184DA84203D122F070050A
:100B20004A882A43154DA84206D0154DA84203D045
:100B300022F44075CA882A4302808A8882850A88FE
:100B4000028598420AD0A04208D00E4A904205D0B1
:100B50000D4A904202D00D4A904201D1097A018695
:100B60000121818230BD0000002C01400034014091
:100B70000004004000080040000C0040001000404D
:100B80000014004000400140004401400048014082
:100B900070B5084D40F225542146284600F023F850
:100BA000002805D021462846BDE8704000F004B872
:100BB00070BD0000004400400A0A01219140C94371
:100BC000018070470029818902D041F4005101E081
:100BD00021F40051818170470246002012880A42A8
:100BE00000D00120704730B501F01F02012400251C
:100BF000C1F3421304FA02F2012B0FD0022B0FD0E3
:100C0000838A4FEA11210088134204FA01F400EAB2
:100C1000040001D000B10125284630BD8389F0E7EA
:100C2000038AEEE730B50446008A85B00D464CF6DF
:100C3000FF710840E98801432182A1894EF6F31033
:100C40000140A8882A8910436A890A431043A08179
:100C5000A08A4FF6FF410840A9890143A182684656
:100C6000FFF712FE1948844201D1039800E0029870
:100C7000A189090400EBC00101EB0010296801D52E
:100C8000490000E08900B0FBF1F06422B0FBF2F112
:100C900009010B096FF018056B4300EB8300A38972
:100CA0001D044FF0320306D503EBC000B0FBF2F099
:100CB00000F0070005E003EB0010B0FBF2F000F0DD
:100CC0000F000843208105B030BD0000003801400E
:100CD000C1F3080181807047FEE730380A2801D24D
:100CE00001207047002070477047000010B50021B8
:100CF000032000F0B7FF0D4C206028B90B230C4AED
:100D00000CA113A0FFF7B6FA00220421052000F081
:100D1000B3FF6060002808D1054A1523BDE81040E4
:100D2000173204A116A0FFF7A5BA10BD9800002045
:100D300030230008536F6674776172655C6D65736C
:100D4000736167655F6D616E616765722E63000038
:100D50004552524F523A25732025732025643A207C
:100D60006372656174652075736172745F73656D1C
:100D70006170686F7265206661696C0D0A00000021
:100D80004552524F523A25732025732025643A204C
:100D9000637265617465206C65645F7379737465F3
:100DA0006D5F72756E696E675F6D73675F71756594
:100DB0007565206661696C0D0A00000030B5044657
:100DC00085B001210820FFF753FD01218804FFF7BA
:100DD00043FD4FF48060ADF8100018208DF813002B
:100DE0000320144D8DF8120004A92846FFF7DAFC01
:100DF000E814ADF8100004208DF8130004A928466B
:100E0000FFF7D0FC0020ADF804000094ADF8060018
:100E1000ADF80800ADF80C000C20074CADF80A0046
:100E200069462046FFF7FEFE01212046FFF7CAFE75
:100E300005B030BD000C014000480040074842F2B8
:100E400010710068B0FBF1F14FF0E020491E4161E4
:100E5000016941F0050101617047000004000020B4
:100E600070B5074D0446C1B22846FFF731FF402157
:100E70002846FFF7B1FE0028F9D0204670BD0000DB
:100E8000004800400B4648B101280BD002280DD085
:100E900003280FD11146184600F05CB811461846D9
:100EA00000F076B81146184600F0ACB81146184666
:100EB00000F032B87047000008B501211020FFF79C
:100EC000D7FC4FF40050ADF8000003208DF802006D
:100ED00010208DF8030069460148FFF763FC08BD48
:100EE00000100140002100F0E9BC012100F0E6BC47
:100EF000002101704180704711F0FF0207D0012AE4
:100F000007D0022A07D1090C0A22FFF7BBBFFFF75F
:100F1000E9BFFFF7EABF704770B50D4C06460D46B6
:100F20002089401C2081A078C0070ED0002102201B
:100F300000F0C4FCB6FBF5F02189884204D1A0780A
:100F4000401CA0700020208170BD0121EFE700004F
:100F5000A000002070B50D4C06460D466089401C6F
:100F60006081E078C0070ED00021032000F0A6FCCD
:100F7000B6FBF5F06189884204D1E078401CE0704E
:100F80000020608170BD0121EFE70000A00000207B
:100F900070B50D4C06460D46A088401CA0802078F8
:100FA000C0070ED00021002000F088FCB6FBF5F051
:100FB000A188884204D12078401C20700020A080A5
:100FC00070BD0121EFE70000A000002008B56846D1
:100FD000FFF78EFF02208DF800004FF4FA70084CE6
:100FE000ADF8020000231A466946206800F060FE52
:100FF00000200099FFF780FF642000F037FDF1E743
:101000009C00002070B50D4C06460D46E088401C43
:10101000E0806078C0070ED00021012000F04EFC77
:10102000B6FBF5F0E188884204D16078401C60701E
:101030000020E08070BD0121EFE70000A00000204B
:10104000FFF7FCFEFFF738FF00F0E0FB4FF46120F4
:10105000FFF7B4FE0648016806A0FFF70BF90CA0E5
:10106000FFF708F9FFF786FB00F08CFDFEE70000B4
:10107000040000200D0A53797374656D436F726527
:10108000436C6F636B203D2025640D0A0000000057
:101090000D0A626F61726420696E69742066696E00
:1010A00069736865640D0A002DE9F041184C0F461C
:1010B0000546E6682068001D00F016FC38B9206877
:1010C00090F82C1001208840216981432161681C1F
:1010D00007D137B12168BDE8F0410E48091D00F085
:1010E0003BBC20683544B5424560216805D2A06B01
:1010F000BDE8F041091D00F017BC606B091D00F050
:1011000013FCA06A854200D2A562BDE8F081000010
:101110002C000020A00100202DE9F041054600F040
:1011200027FC2E4CA068401CA06020682C4F10B1FA
:10113000606940B32DE02560A068012829D1002610
:1011400006EB860007EB800000F0E0FB761C052E26
:10115000F6D32348643000F0D9FB2148783000F002
:10116000D5FB1F488C3000F0D1FB1D48A03000F0AB
:10117000CDFB1B48B43000F0C9FB194864306063F4
:101180001430A06305E02068E96AC06A884200D88C
:101190002560606A401C6062E96A0120226988401B
:1011A0001043206101EB810007EB8000291D00F056
:1011B000D3FB00F0EBFB606900280CD02068E96AE3
:1011C000C06A884207D207494FF080500860BFF3D9
:1011D0004F8FBFF36F8FBDE8F08100002C0000201F
:1011E000EC00002004ED00E010B500F0C1FB0E4C57
:1011F0002068A0B90D4800F089FB0C48143000F0BD
:1012000085FB0A48E0601430206100220C210A208E
:1012100000F032FD206010B105A100F0F1FBBDE847
:10122000104000F0B3BB000068000020B4010020B3
:10123000546D72510000000070B5114E114C17E052
:1012400000F0CEFC3068B8B100F0D6FF00F090FBA3
:10125000F068C568281D00F047FBA068401EA0602C
:101260006068401E606000F091FB284600F055F871
:1012700060680028E4D170BD00F0BEFFF8E7000010
:101280008C0100202C00002030B4026C0B46002A98
:101290000BD0C1681144C1604468A14201D3016808
:1012A000C16030BC1846FFF71BB930BC70472DE950
:1012B000F041856B174604460026026C82B1C7B127
:1012C000E068FFF70DF9E168206C091AE160226817
:1012D000914202D26168081AE060022F16D017E02E
:1012E0002068A8B9606800F01DFF06460020606015
:1012F0000EE0A068FFF7F4F8216CA0680844A06035
:101300006168884204D32068A06001E005B16D1EC9
:101310006D1CA5633046BDE8F08110B50446006B36
:1013200000F03EFB2046BDE8104000F039BB000055
:1013300010484FF42051420706D0C01D0D4920F03F
:101340000700411AC1F520510B4A00230144C2E9AC
:1013500000030839103A21F0070111604B600B605F
:101360000B1AC0E9001393604FF000405360D06047
:1013700070470000DC0100208C000020074C4FF07B
:101380008056074DFFF758FF20680128FAD92E60D4
:10139000BFF34F8FBFF36F8FF4E70000EC00002026
:1013A00004ED00E02DE9F0479A46DDE90964814645
:1013B0006FF00303206B03EB82021044089D20F0C2
:1013C0000708002023180A5C83F834200A5C12B155
:1013D000401C1028F6D3002784F84370052D00D355
:1013E0000425E562C4E91157201D00F09AFA04F1C2
:1013F000180000F096FA2461C5F105006462A0614E
:10140000E76484F8507052464946404600F0ECF9D3
:101410002060002E00D03460BDE8F08730B511495F
:1014200000E011460A688242FBD34B685C18844294
:1014300003D1406818444860084643681C18944229
:1014400009D1084C103C2468A24209D052681A44C1
:1014500042600A6812680260814200D0086030BDB4
:101460000460F9E78C00002070B5002441600B4D4A
:101470000061914206D8D11A8269914206D2011DBB
:10148000286907E09A4203D2994201D3012403E07C
:10149000011DE86800F048FA204670BD6800002091
:1014A00010B5044600F064FAA06B28B15FF00004A8
:1014B00000F06CFA204610BD0124F9E730B587B082
:1014C000234D3AE00498002837DB069C606910B190
:1014D000201D00F009FA02A800F09EF802460498C8
:1014E0000A282AD2DFE800F0050505291E26050591
:1014F000291E0598A169034601442046FFF7B4FF61
:10150000D8B1616A20468847E069012815D10020DA
:1015100000900598A169002342181946204600F062
:10152000E3FE0AE00598A061811813462046FFF704
:101530009BFF02E0204600F033FA00231A4604A97C
:10154000286800F0B5FB0028BCD107B030BD000012
:10155000680000202DE9FC410F46054600F040FBE5
:1015600001A800F059F80446019818B100F044FEB3
:10157000BDE8FC811E4EAFB130690068A0B3002702
:10158000291B3A46306800F04FFA00F035FE00287B
:10159000EED118494FF080500860BFF34F8FBFF372
:1015A0006F8FE5E7A542EBD800F026FEF0682746EE
:1015B000C068C468201D00F097F9E06901280FD1C8
:1015C000A0692B4641193A462046FFF74DFF38B136
:1015D00000200346014600902A46204600F084FE83
:1015E000616A20468847C3E7FFE70127C8E7000094
:1015F0006800002004ED00E00648416B096829B14D
:10160000416BC968C9684968816270474FF0FF3112
:10161000FAE700002C00002070B5054600F022FD1E
:10162000064E0446B068844203D200F009F8012057
:1016300000E0002028602046B46070BD68000020F3
:10164000F8B5144D1EE0C068C4680668201D00F09F
:101650004BF9616A20468847E069012812D1A069E8
:101660003044B04206D924616060211DE86800F072
:101670005BF907E000200346014600903246204611
:1016800000F032FEE86801680029DCD12969C5E96B
:101690000310F8BD68000020BF2080F31188BFF35D
:1016A0004F8FBFF36F8FFEE7074CE068016841B1D1
:1016B000C0680021D0F80000FFF74CFFFFF7FEFEE6
:1016C000F3E701210020F7E7680000202DE9F04151
:1016D000044600F04DF994F9455004F1240609E060
:1016E000606A48B1304600F055FD08B100F0D6F907
:1016F0006D1E6DB2002DF3DC4FF0FF3684F84560AF
:1017000000F044F900F034F994F9445004F1100762
:1017100009E0206948B1384600F03CFD08B100F00E
:10172000BDF96D1E6DB2002DF3DC84F84460BDE898
:10173000F04100F02BB900002DE9F04105460027EB
:1017400000F04EFA214E306808B9FFF7F1FDF0685D
:10175000054236D1ADB30835680704D005F007005F
:10176000C0F10800054465B37068854229D8174860
:10177000103001460C6801E020460C466168A94221
:1017800002D221680029F7D131688C4219D007684C
:101790002168016060680837411B102904D960196D
:1017A00041606560FFF73AFE61687068401A7060DA
:1017B000B268904200D2B060F06801430020C4E9F2
:1017C000000100F019FD3846BDE8F0817C000020E2
:1017D0000449086818B10868826C521C8264086861
:1017E000704700002C00002010B5031F4FF08074DC
:1017F0001C601B1F21F001011960191F024B0B60B7
:10180000143940380A6010BD99160008AFF3008003
:1018100070B588B001210420FFF72AF84FF48075D5
:10182000ADF81C5018208DF81F0003208DF81E0005
:1018300007A92048FEF7B6FF0121C802FFF718F8F4
:10184000002440F23F20ADF814001B4EADF81040CC
:10185000ADF81240ADF816408DF8184004A9304696
:10186000FFF748F96020ADF800000120ADF8020054
:10187000ADF804404FF49070ADF80600ADF80840A4
:101880000820ADF80A00ADF80C40ADF80E506946DE
:101890003046FFF7E9F808213046FFF725F9012126
:1018A0003046FFF7D5F801213046FFF7C7F808B0FA
:1018B00070BD000000080140002C014030B4094B0D
:1018C0004FF4005428B1012803D0022801D0032886
:1018D00005D10A46214630BC1846FEF7B4BF30BCDD
:1018E0007047000000100140D0E9013201699A60A0
:1018F000D0E901235A604A68824201D182684A6075
:10190000002202610868401E0860704700F108016B
:101910004FF0FF32C0E90112C16001610021016096
:10192000704700210161704730B50B685A1C02D026
:1019300000F1080202E0026904E0224654682568CA
:101940009D42FAD953684B6099608A605160086182
:101950000168491C016030BD42684A6093688B6031
:1019600093685960916008610168491C0160704783
:10197000BF2080F31188BFF34F8FBFF36F8F0248F2
:101980000168491C01607047940000200349086801
:10199000401E086001D180F3118870479400002038
:1019A00070B5002818D00D4DA0F108046068E968F2
:1019B000084211D02268002A0ED18843606000F0EE
:1019C0000FF960686968084468602046FFF726FDE3
:1019D000BDE8704000F010BC70BD00007C0000202D
:1019E000064842F210710068B0FBF1F14FF0E020C0
:1019F000491E416107210161704700000400002079
:101A000010B5084B002200BF53F832401CB1521CE5
:101A1000082AF9D310BD43F8321003EBC201486025
:101A200010BD0000AC00002070B515460E460446FF
:101A3000FFF79EFF94F944100020491C01D184F85F
:101A4000440094F94510491C01D184F84500FFF782
:101A50009DFFA06B28B92A46314604F1240000F00E
:101A600033F82046BDE87040FFF730BE10B50200E5
:101A700009D000F0B5F800211046FFF715FB00F083
:101A8000BBFB002807D104494FF080500860BFF32A
:101A90004F8FBFF36F8F10BD04ED00E001490120AF
:101AA000C86170472C00002010B50C460549096834
:101AB0001831FFF739FF2046BDE810400121FFF73C
:101AC000F3BA00002C00002070B50D4607491446FB
:101AD00009681831FFF740FF0CB14FF0FF35214680
:101AE0002846BDE87040FFF7DFBA00002C00002058
:101AF00070B5040039D01D4DE06A2968C96A884272
:101B000033D2A069002804DB2868C06AC0F1050050
:101B1000A061E16A164E01EB8101606906EB81016B
:101B200088421FD1201DFFF7DFFE012150B9E06A76
:101B300000EB800256F8222022B92A6901FA00F04F
:101B400082432A612868C06AE0622A6981401143A1
:101B5000296100EB800006EB8000211DBDE870408C
:101B6000FFF7FABE2868C06AE06270BD2C00002052
:101B7000EC00002002490A6A0260C96841607047AF
:101B80002C0000201CB512480024CDE9004023465B
:101B9000802210A1114800F02BFA012816D100F084
:101BA00085FB012812D1BF2080F31188BFF34F8F2E
:101BB000BFF36F8F06484FF0FF312C38816201214F
:101BC0004161C460BDE81C4000F034B81CBD000099
:101BD0005800002049444C45000000007D130008D7
:101BE0000248016B491C0163704700002C00002073
:101BF0000E48016B11B10121C16170470021C16123
:101C000001690B4AB1FA81F1C1F11F0101EB8101B8
:101C100002EB810101F108034A6852684A609A4266
:101C200001D152684A60D168016070472C000020E1
:101C3000EC000020094810B5016841F47F01016003
:101C4000016841F07F410160FFF7CAFE04490020AE
:101C50000860FEF7B3FA002010BD000020ED00E0A0
:101C60009400002010B50C460222002100F004F878
:101C7000002800D0846310BD70B50E00054612D058
:101C800005FB06F04830FFF757FD040009D004F1CA
:101C9000480120464EB10160C0E90F56012100F015
:101CA00099F8204670BD0020ECE70060F4E70000E2
:101CB0002DE9FF4F002783B09A468B460446B9466C
:101CC0004FF08056DFF80881FFF752FEA56B4DB349
:101CD00059462046E768FFF7D7FABAF1000F14D04B
:101CE000E760606A58B104F1240000BF00F052FAC6
:101CF00028B1C8F80060BFF34F8FBFF36F8FFFF7B5
:101D000045FE012007B0BDE8F08F6D1EA563206879
:101D100010B9FFF75DFD606020690028EFD004F185
:101D20001000E3E7059808B11FB106E0FFF72EFEAB
:101D300027E06846FFF71EFF0127FFF727FEFFF7A2
:101D40004FFFFFF715FE94F94400401C01D184F8C1
:101D5000449094F94500401C01D184F84590FFF768
:101D600015FE05A9684600F01FF9002820460AD094
:101D7000FFF7ACFC00F040FA2046FFF791FB00288B
:101D8000A2D00020BEE7FFF78BFBD8B1206830B9A6
:101D9000FFF7EEFD6068FFF7ABFEFFF7F7FD04F11C
:101DA00024000599FFF780FE2046FFF78FFC00F026
:101DB00023FA002888D1C8F80060BFF34F8FBFF323
:101DC0006F8F81E72046FFF781FC00F015FA7BE773
:101DD00004ED00E070B50D460446FFF7C9FDD4E9F7
:101DE0000F12206801FB020060600020A0632068E1
:101DF000A0600146E06B401E00FB0210E0604FF067
:101E0000FF3084F8440084F8450004F110004DB11F
:101E1000FFF77CFD04F12400FFF778FDFFF7B6FD26
:101E2000012070BD21690029F8D000F0B3F9002825
:101E3000F4D004494FF080500860BFF34F8FBFF3D8
:101E40006F8FEBE704ED00E02DE9FF4700273B4EE5
:101E500082B099468A460446B8464FF0805500BF86
:101E6000FFF786FDA06BE16B884206D3B9F1020F44
:101E700003D00498C0B1D7B11DE04A465146204670
:101E8000FFF715FA616A19B104F1240000F082F934
:101E900020B13560BFF34F8FBFF36F8FFFF776FD33
:101EA000012006B0BDE8F087FFF770FD21E068462D
:101EB000FFF760FE0127FFF769FDFFF791FEFFF7CF
:101EC00057FD94F94400401C01D184F8448094F9F2
:101ED0004500401C01D184F84580FFF757FD04A957
:101EE000684600F061F830B12046FFF7EFFB00F0E4
:101EF00083F90020D5E7FFF73BFDA06BE16B88423B
:101F000013D1FFF743FD04F110000499FFF7CCFD56
:101F10002046FFF7DBFB00F06FF90028A0D1356009
:101F2000BFF34F8FBFF36F8F9AE7FFF72FFD204668
:101F3000FFF7CCFB00F060F992E7000004ED00E051
:101F40002DE9F04104461746BF20EFF3118680F3D8
:101F50001188BFF34F8FBFF36F8FA26BE06B82428C
:101F600006D3022B04D0002086F31188BDE8F0814F
:101F700094F945501A462046FFF799F9681C04D099
:101F80006D1C84F845500120EEE7606A0028FAD005
:101F900004F1240000F0FEF80028F4D0002FF2D065
:101FA00001203860EFE7000070B50D460446FFF7EA
:101FB000DFFC0E4AD1682868431C0FD02368126AE0
:101FC000934202D062688A420AD96268891A8142C1
:101FD00006D2401A28602046FFF7CCFD002400E01E
:101FE0000124FFF7D3FC204670BD00002C00002028
:101FF0002DE9FF5F8346DDE90E87994616468A463E
:102000009000FFF799FB05001AD05420FFF794FBCE
:10201000040012D025630021CDE90241CDE90087FB
:102020004B46324651465846FFF7BCF92046FFF76B
:1020300073F8012004B0BDE8F09F2846FFF7B0FC1C
:102040004FF0FF30F6E700000548416919B1006B19
:1020500018B100207047012070470220704700002F
:102060002C0000200148C068704700002C000020B0
:102070002DE9F041294C0027206B40B1A069401C9C
:10208000A061E06900B101273846BDE8F081E6684B
:10209000761CE66008D1606BA16B6163A063206A67
:1020A000401C2062FFF7A8FAA06ADFF8748086421D
:1020B00009D3606B006880B1606BC068C5686868F0
:1020C00086420DD2A0622068C06A00EB800158F8F9
:1020D00021000128D5D90127D3E74FF0FF30F1E7E0
:1020E000281DFFF701FCA86A18B105F11800FFF7D9
:1020F000FBFBE86A0121226981401143216100EB69
:10210000800108EB8100291DFFF726FCE86A2168A1
:10211000C96A8842CDD30127CBE700002C000020FC
:10212000EC00002070B504004FF000012BD0A06C33
:10213000401EA064636CE26A9A4224D018BB201D42
:10214000FFF7D2FB114B124A012150B9E06A00EBB4
:10215000800553F8255025B9156901FA00F085432B
:102160001561606CE062C0F10500A061E06A15696C
:1021700081402943116100EB800003EB8000211DA9
:10218000FFF7EAFB0121084670BD0000EC000020CB
:102190002C0000202DE9F041C068C46804F118004B
:1021A0000746FFF7A1FB124D286B012668B11148C5
:1021B000394600BFFFF7D0FBE06A2968C96A884248
:1021C00014D90120EE61BDE8F081201DFFF78CFBE2
:1021D000E16A2A6906FA01F01043286101EB8100E7
:1021E00004498C3901EB8000211DE3E70020EAE778
:1021F0002C000020780100202DE9F047002426461D
:10220000FFF7B6FB264D286B401E2863286BE0BB0A
:10221000A968244F0120C1B3A7F18C098046386812
:10222000E8B1F868C46804F11800FFF75DFB201DF1
:10223000FFF75AFBE06A2A6908FA00F111432961A5
:1022400000EB800109EB8100211DFFF785FBE06AAF
:102250002968C96A8842E2D3C5F81C80DFE70CB15F
:10226000FFF7CAF9AC694CB14FEA0807FFF700FF66
:1022700000B1EF61641EF9D10020A861E86920B1C6
:10228000094901263007086000E003E0BFF34F8FE3
:10229000BFF36F8FFFF77AFB3046BDE8F087000091
:1022A0002C0000207801002004ED00E01CB5002483
:1022B000FEF79AFF0848006858B107490220091D37
:1022C000CDE90001C201002304A10648FFF790FEFA
:1022D000044620461CBD000068000020546D72209A
:1022E00053766300A9160008FEB5104C1F4603463E
:1022F00026680020089D002E0ED08DE80E000629CD
:102300000DDAFFF7A1FE02284FF0000305D00022EE
:1023100069462068FFF798FDFEBD2A46F8E70023CE
:102320003A4669463046FFF70BFEFEBD68000020C6
:102330006372656174655F75736172745F73656DF7
:102340006170686F7265006372656174655F6C656A
:10235000645F73797374656D5F72756E696E675FC4
:102360006D73675F71756575650004000008000096
:102370000000000000020001000010009C23000883
:1023800000000020AC0000002801000848240008DC
:10239000AC000020942F0000440100080000000061
:1023A00000A24A0400000000000000000102030433
:1023B00006070809020406080000000001020304E1
:1023C00001020304060708090000000000000000E5
:1023D00000000000000000000000000000000000FD
:1023E00000000000000000000000000000000000ED
:1023F00000000000000000000000000000000000DD
:1024000000000000000000000000000000000000CC
:1024100000000000000000000000000000000000BC
:1024200000000000000000000000000000000000AC
:10243000AAAAAAAA000000000000000000000000F4
:08244000000000000000000094
:04000005080000ED02
:00000001FF
